:020000040000FA
:06000000020AC002022BFF
:03002B000208C305
:0300430002079120
:0300530002016047
:03006B0002076B1E
:100083000201BF0100F0FF0700080000FFFF0000AE
:10009300050400000003000147726F757000FF0440
:1000A30000100020FD000206FFFF010800F3150009
:1000B300000008FC08FC060008000104010301001D
:1000C30003EB1901E9190100F315F1190001E80324
:1000D300A413000000000000000000000000000066
:1000E300000001080401030101035C890350890135
:1000F300040000CB16000000E8030000FFFF1C17FC
:100103000188130000E803000064006400B801A044
:10011300BB0D00A0BB0D00020202070401051E0275
:10012300051E020A0A0108080103B80B02803E01FA
:1001330002FEFFE8030A050001FFFF020A011401A2
:10014300E00200000005030101FF0F742500000019
:1001530000482400000000FF000000FF00C0E0741E
:10016300F1120442A2AFE433F509D2AF85A708AF79
:10017300A1EF5508FE74105E6006120D9875A1EF8D
:1001830074085E6008120D9E75A1F78024EFA2E04B
:1001930092F0E508A2E082F05017906198E0F890A1
:1001A30007ADE0C398A2D265D0335002E8F075A141
:1001B300FEE509A2E092AF7F020204A1C0E074F25F
:1001C300120442A2AFE433FED2AF9061A4E0F8750B
:1001D3009B00E59158540860087591F7120DEC8067
:1001E30023E59158541060087591EF120DF28014B5
:1001F300E591A2E092F0E8A2E082F05007E0C2E0CD
:10020300F0120F3C9061A3E0F8E5E9585404600E46
:10021300120F1275E9FB906193E0A2E640F2EEA2A1
:10022300E092AF7F010204A1C0E074F2120442A283
:10023300AFE433FED2AF9061A5E0F8E5BF585404B4
:10024300600675BFFB120F5480D4C3E498F8E49999
:10025300F912028E8026C3E49AFAE49BFBE920E7B5
:10026300E912028EE498F8E499F922C3E498F8E4D9
:1002730099F912028EE498F8E499F9C3E49AFAE43E
:100283009BFB22EB20E7CFE920E7E0B90010BB009E
:1002930008E88AF084F8AAF022E4FBC8FA22EB709B
:1002A300227B10C833C8C933C9335007C39AC3DB91
:1002B300F280069A50012ADBEAC833F4C8C933F442
:1002C300C9FA2275F008E4C833C8C933C933C99AD7
:1002D300C99B5004C92AC93BD5F0ECFBC833F4C809
:1002E300E4C9FA22080808EAC0E0EBC0E086F0E7B8
:1002F300A4FA180986F0E7A42AFA180986F0E7A4F5
:100303002AFA180986F0E7A42AFA1986F0E7A4FB6B
:10031300E5F02AFA190886F0E7A42BFBE5F03AFA90
:10032300190886F0E7A42BFBE5F03AFA18180986BA
:10033300F0E7A4C5F02BFBE43AFA1908E7C5F0C6C9
:10034300A426F6E5F03BFBE43AFA1886F0E7A4F6B8
:10035300E5F00826F6E43B08F6E43A08F6D0E0FBBD
:10036300D0E0FA22E4CFC0E0E4CEC0E0E4CDC0E0C8
:10037300E4CCC0E075F020E626F608E633F608E69E
:1003830033F608E633F6181818EC33FCED33FDEEBC
:1003930033FEEF33FFC3EC9709ED9709EE9709EFAF
:1003A30097191919400FFFEC97FC09ED97FD09EE1A
:1003B30097FE191906D5F0BFECF709EDF709EEF72B
:1003C30009EFF7191919D0E0FCD0E0FDD0E0FED019
:1003D300E0FF222518C582C0E0E51934FFC583C0BC
:1003E300E0E518C3958224F810AF08858319858248
:1003F300188008858319858218D2AFCEF0A3E52033
:10040300F0A37808E608F0A3DEFAEFF0A3E5812471
:10041300FAF8E608F0A3E608F0A3E608F0A3080854
:10042300E608F0A3E608F0A315811581D0E0FED01D
:10043300E0F8158115811581E8C0E0EEC0E022C027
:10044300D02518C582C0E0E51934FFC583C0E0E5B7
:1004530018C3958224F310AF088583198582188009
:1004630008858319858218D2AFC8F0A3E9F0A3EAFF
:10047300F0A3EBF0A37908E709F0A3D8FAECF0A313
:10048300EDF0A3EEF0A3EFF0A3D0E0F0A3D0E0F003
:10049300A3D0E0F0A3E520F0A3E5F0F0A3228519B3
:1004A30083851882E0C0E0A3E0F9A3E0FAA3E0FBB0
:1004B300A37808E0F608A3DFFAE0FCA3E0FDA3E0DD
:1004C300FEA3E0FFA3E0C0E0A3E0C0E0A3E0F5D01B
:1004D300A3E0F520A3E0A3F5F010AF088583198509
:1004E30082188008858319858218D2AFD082D08381
:1004F300D0E0F8D0E032120B3AB90003020538E439
:1005030090030178BA79178002F0A3D8FCD9FA7A5C
:10051300BA7B1990008678DB79018015E493A3AD4B
:1005230082AE838A828B83F0A3AA82AB838D828E71
:1005330083D8E9D9E775821D7583DD7404120854E5
:100543007582BA7583217400120854E47375F01030
:100553008E1A8F1B85821F85831E851882851983BA
:10056300E0CEA3E0CF851F82851E83EBC9EAC8EDE9
:10057300CBECCAC3E833C8E933C9EA33CAEB33CB9C
:10058300C3EA9EF51DEB9FF51CB35004AB1CAA1DDB
:10059300EC33CCED33CDD5F0DAAE1AAF1B22D083DA
:1005A300D082ECC0E0EDC0E0E493A3FCE493A3FDB0
:1005B300ED4C600D120679EC24FFFCED34FFFD8059
:1005C300EFE493A3FCE493A3FDED4C600D12071637
:1005D300EC24FFFCED34FFFD80EFD0E0FDD0E0FC28
:1005E300E493A3C0E0E493C0E022851983851882D5
:1005F300E0A3FEE0A3F5207808E0A3F608DFFAE025
:10060300A3FFE0A3C0E0E0A3C0E0E0A3C0E0E0A359
:10061300C0E0E0A3C0E010AF08858218858319808D
:1006230008858218858319D2AFD083D08202085AF5
:10063300D083D082E9C0E0E493A3C386F0C5F095EC
:10064300F0F908E493A386F0C5F095F0700BE493FA
:10065300A3C3994005E9048002A3E475F002A4252D
:1006630082F582E5F03583F583D0E0F9E493A3C006
:10067300E0E493C0E022C0E0C3E4939608740193DE
:100683009618400FE4936670080874019366187017
:10069300007019A3A3C3E49396087401939618A357
:1006A300A3400DD0E0D0E0D0E00205DDA3A3A3A3D7
:1006B300A3A3D0E0227404800474028000CCC0E0C1
:1006C300EDC0E0E518C39CCCAD1950011D10AF0679
:1006D3008C188D1980068C188D19D2AF1207D6D0BD
:1006E300E0FDD0E0FC2274028000CCC0E0EDC0E06D
:1006F300E518C39CCCAD1950011D10AF068C188DA5
:100703001980068C188D19D2AF1207B4D0E0FDD032
:10071300E0FC22C0E0C0F088F0E49366700808743F
:10072300019366187000A8F0A3A3700BD0F0D0E07B
:10073300D0E0D0E00205DDA3A3D0F0D0E022D08347
:10074300D082CCC0E0E493A360061208161470FABA
:10075300E493A360061209561470FAD0E0FCE49304
:10076300A3C0E0E493C0E022C0E074F2120442A20A
:10077300AFE433FED2AFE589A2E15003120C6075FA
:100783008900C2C5EEA2E092AF7F010204A1C0E0DE
:1007930074F2120442A2AFE433FED2AFC2C0E5D179
:1007A300A2E45003120D08EEA2E092AF7F0102040F
:1007B300A1CAC0E0E493A3C582CCC582C583CDC5DD
:1007C30083F0A3C582CCC582C583CDC583DAE5D0CA
:1007D300E0CA22CAC0E0E0A3C582CCC582C583CDEE
:1007E300C583F0A3C582CCC582C583CDC583DAE6B4
:1007F300D0E0CA22C008C3E096F50808A3E09642F9
:100803000808A3E096420808A3E09645087001D3C0
:10081300D00822C0E0E493A3D39C5010E493A3C375
:100823009C400AD0E0D0E0D0E002075EA3A3A3D0AF
:10083300E0227009080808226016181818C6C33386
:10084300C608C633C608C633C608C633C6D5E0EAEB
:1008530022C09FF59FE473D09F22D083D082C09F94
:10086300E493C0E0740193C0E0740293F59F220007
:10087300C0D0251810AF08F518500C05198008F5DD
:100883001850020519D2AFD0D0222518F58210AF27
:1008930008F518400C15198008F51840021519D2EF
:1008A300AF851983227404800A740380067402805E
:1008B300027401C0E0F40412088DD0E0120AFD2294
:1008C300C0E0C0D0E8C0E0A8A8D2AFC2C7E8A2E7A2
:1008D30092AFD0E0F8D0D0D0E032BB0102E722C023
:1008E30082C08389828A83BB0003E08002E493D0C1
:1008F30083D082226016080808C6C313C618C6131D
:10090300C618C613C618C613C6D5E0EA22C3E0C686
:1009130096F608A3E0C696F608A3E0C696F608A3E3
:10092300E0C696F6222518F8E43519F9222518FAB7
:10093300E43519FB222518FCE43519FD222518108E
:10094300AF08F518400C15198008F5184002151961
:10095300D2AF22C0E0E493A36C7009D0E0D0E0D022
:10096300E002075EA3A3D0E022E066701008A3E0D4
:1009730066700A08A3E066700408A3E06622E766CF
:1009830070100809E766700A0809E7667004080929
:10099300E76622C3E09608A3E09608A3E09608A3BF
:1009A300E096A2D265D03322C3E096F008A3E09686
:1009B300F008A3E096F008A3E096F022C3E697F6CA
:1009C3000809E697F60809E697F60809E697F62276
:1009D300C3E493960874019396087402939608747B
:1009E30003939622E647F60809E647F60809E64721
:1009F300F60809E647F622700422600D18C6C333D1
:100A0300C608C633C6D5E0F41822E026F008A3E0F2
:100A130036F008A3E036F008A3E036F022E026F62D
:100A230008A3E036F608A3E036F608A3E036F6227C
:100A3300E657F60809E657F60809E657F60809E601
:100A430057F622E627F60809E637F60809E637F6E9
:100A53000809E637F622E056F008A3E056F008A3AB
:100A6300E056F008A3E056F022E056F608A3E0565D
:100A7300F608A3E056F608A3E056F622E4C396F67A
:100A830008E496F608E496F608E496F622C6F4C659
:100A930008C6F4C608C6F4C608C6F4C622C3E79659
:100AA3000809E7960809E7960809E79622C3E0963E
:100AB30008A3E09608A3E09608A3E0962275D00069
:100AC30075813F751801751903000204F9600C085C
:100AD300C6C313C618C613C6D5E0F422E6F008A3AE
:100AE300E6F008A3E6F008A3E6F022E0F608A3E0A8
:100AF300F608A3E0F608A3E0F622CAC0E0E6F0A3F6
:100B030008DAFAD0E0FA22EAF0A3EBF0A3ECF0A3C0
:100B1300EDF022E0FAA3E0FBA3E0FCA3E0FD22E07A
:100B2300F8A3E0F9A3E0FAA3E0FB22E8F0A3E9F0DD
:100B3300A3EAF0A3EBF022E5C754F84401F5C77923
:100B430001222518F582E43519F58322C2AF75D643
:100B53009F0200002212085DB19E0412085D23A0CB
:100B63000412085D76A00412085DAAA00412085DB1
:100B730028E00312085DA4E00312085DD7E0031226
:100B8300085D05E10312085D29E30312085D45E3EF
:100B93000312085D8AE30312085D0FE40312085D84
:100BA3005BE40312085DEBE40312085DC4E5031282
:100BB300085D15E60312085D7AE60312085DEDE6AB
:100BC3000312085D31E70312085D89E70312085D2C
:100BD300ABE70312085D3BE80312085DCCE80312A0
:100BE300085D18E90312085D44E90312085D85E90D
:100BF3000312085D26EB0312085D08EC0312085D7F
:100C0300E4EC0312085D53F30412085D64F3041269
:100C1300085DF57F0012085D7EF20412085DBDF3E6
:100C23000412085D45EF0412085D55EF0412085DD8
:100C330070EF0412085DD8EF0412085DA0EC0412F3
:100C4300085D24ED0412085D8CED0412085D1FFF9E
:100C53000212085D3BFF0212085D92FF0212085D5B
:100C6300CAFF0212085D87E70412085D95E70412C4
:100C7300085DF5E70412085D2DE80412085D49E8F4
:100C83000412085DD6E80412085D947F0012085D23
:100C9300B97F0012085DCC7F0012085DD77F001278
:100CA300085D69CE0412085D77CE0412085DF0CEAC
:100CB3000412085DC5CF0412085D97D10412085DC4
:100CC300A7D70412085DC2D70412085DEFD7041238
:100CD300085D03D90412085DA3D90412085DC7D9BE
:100CE3000412085DC6FF0312085D6BBD0412085DA4
:100CF300D7BD0412085D8FBE0412085D7CBF0412C9
:100D0300085DF1C00412085D58C10412085DACC14E
:100D13000412085DB5C10412085DC5C10412085D63
:100D230038C20412085D4EC20412085D58C2041290
:100D3300085DE8F90212085D14FA0212085DABFCC3
:100D43000212085DEBFC0212085D27FD0212085D2A
:100D53003BFD0212085D54FD0212085D45FE0212BE
:100D6300085DF7FE0212085D0BFF0212085D25E61F
:100D73000412085D49E60412085D62E60412085D88
:100D8300A0E60412085DD0E60412085DFDE6041235
:100D9300085D63E70412085D66E70412085D70E707
:100DA3000412085D7DE70412085D76DA0412085D1B
:100DB30096DA0412085DD5DA0412085DF3DA041238
:100DC300085D0EDB0412085D74DB0412085D80DB32
:100DD3000412085DDDDB0412085DECDB0412085D20
:100DE30010DC0412085DD1DC0412085DDEDC0412A1
:100DF300085DEFDC0412085DF1F10412085D09F2ED
:100E03000412085D35F20412085D6CFB0312085DE1
:100E1300C8FC0312085DD6FC0312085DE9FC03124B
:100E2300085DFEFC0312085D13FD0312085D26FD39
:100E33000312085DA2FD0312085D07FE0312085D9D
:100E43009DFE0312085D76FF0312085D86FF031201
:100E5300085D95FF0312085DACEE0412085DD0EE49
:100E63000412085DF8EE0412085D20EF0412085D19
:100E7300B1DF0412085DD8DF0412085DF6DF041247
:100E8300085D65E00412085DDED40412085DF7D442
:100E93000412085D03D50412085D17D50412085D1A
:100EA30035D50412085D3FD50412085D49D50412F7
:100EB300085D5CD50412085DE2D50412085D57D6BF
:100EC3000412085D86D60412085DD4D60412085DA8
:100ED30023D70412085D3ED70412085D48D70412D5
:100EE300085D59D70412085D9CD70412085D56F1BA
:100EF3000412085D87AA0412085DB3AA0412085DF0
:100F0300D0AA0412085DE3AA0412085DFEAA041223
:100F1300085D58AB0412085D86AB0412085D96AFFA
:100F23000412085DF4B00412085D26B10412085DD2
:100F330089B10412085DF5B20412085D1DB30412F1
:100F4300085D32B30412085D42B30412085D82B334
:100F53000412085DC4B30412085DD4B30412085D1F
:100F630070EB0412085D8AEB0412085DB2EB041205
:100F7300085DCBEB0412085DEFEB0412085D0DEC8A
:100F83000412085D24EC0412085D52EC0412085D9F
:100F93006DEC0412085D38F20412085DE0CA041215
:100FA300085DF0CA0412085DF5CB0412085D27CC76
:100FB3000412085D57CC0412085D7ACC0412085D54
:100FC30091CC0412085DCBCC0412085D30CD041221
:100FD300085D72CD0412085DB9CD0412085DE6CD3B
:100FE3000412085D11CE0412085D44E40412085D86
:100FF30056E40412085D6AE50412085DF7E504127D
:10100300085DE8E80412085D1EE90412085D3AE988
:101013000412085D7CE90412085D8CE90412085D82
:1010230026EA0412085DF0A00412085DFAA0041277
:10103300085D34A10412085D9DA10412085DBCA1E2
:101043000412085D5EA20412085DE6A40412085DA2
:10105300EFA40412085D40A50412085D69A50412FB
:10106300085D76A50412085DE7A50412085D75A660
:101073000412085DC3A60412085DF9A60412085DF4
:101083005AA70412085D83A70412085DFAA7041285
:10109300085D56A80412085D93A80412085DCAA847
:1010A3000412085DDCA80412085DEEA80412085DB2
:1010B3000DA90412085D16A90412085DD1A9041232
:1010C300085D1DAA0412085D5BAA0412085D30EADC
:1010D3000412085D06E20412085D3CE20412085D96
:1010E30084E20412085DDDE30412085D6FBB0312A2
:1010F300085DA0BC0312085DDCBC0312085D96BE4C
:101103000312085DC0BE0312085D39C10312085DF6
:1011130079C10312085D0DC30312085DACC303124A
:10112300085D04C40312085D97C40312085DD1C4AB
:101133000312085D13C50312085D86C60312085D1A
:1011430006C80312085D43CA0312085D71CA03127D
:10115300085D9DCA0312085DA6CA0312085DFCCA96
:101163000312085D8CCB0312085DCACE0312085D1F
:101173004CCF0312085DA7F30412085DA1F104121A
:10118300085DDBC60412085DF1C60412085D95C74D
:101193000412085DD4C70412085DF1C70412085D88
:1011A30022C80412085D6FC80412085DA3C80412A4
:1011B300085DDEC80412085DD3CA0412085DA5EDFC
:1011C3000412085D04EE0412085D42EE0412085D89
:1011D30083EE0412085D00800212085D0C80021287
:1011E300085D6E800212085D78800212085D058139
:1011F3000212085D41810212085D00820212085D3D
:1012030060820212085DE1820212085D5B830212B2
:10121300085DD6830212085D8A850212085D8787FE
:101223000212085D92880212085D25890212085D88
:101233007E8A0212085D7F8B0212085DC48C021243
:10124300085D51910212085D3A920212085DC39241
:101253000212085DE8920212085D0D930212085D06
:10126300A8930212085DC6930212085DE49302126A
:10127300085D55940212085D74940212085DA194EE
:101283000212085DA2950212085D99960212085D8A
:101293001E980212085DC4980212085D0B9902128F
:1012A300085D7D990212085D0C9A0212085D719A1D
:1012B3000212085DCE9A0212085D6D9B0212085D50
:1012C300DA9B0212085D159C0212085D7E9C0212D5
:1012D300085DE19D0212085D699F0212085D1BA073
:1012E3000212085D30A00212085D81A00212085D9F
:1012F300EEA00212085D1EA10212085D85A1021272
:10130300085D3EA20212085D33A40212085DB9A66D
:101313000212085DD9A70212085DE8AB0212085D4C
:10132300BBAC0212085DD8AD0212085D81AF021298
:10133300085DBEED0312085D76EE0312085DEFEE65
:101343000312085DEBEF0312085DF5F00312085D6D
:101353007FF10312085DABF20312085DCCF20312B6
:10136300085DB3F30312085DD6F40312085D84F538
:101373000312085D00F90312085D04B40412085D4A
:10138300DEB40412085D1FB50412085DF7B504123C
:10139300085D02B70412085D07BB0412085D0CBCAC
:1013A3000412085D67BC0412085D75BC0412085D75
:1013B3001CBD0412085D41BD0412085DF6F204125F
:1013C300085DAAA50312085DD9A50312085D51A6FD
:1013D3000312085D60A70312085DBCA70312085D32
:1013E30033A90312085D4FA90312085DA1A90312D3
:1013F300085DDFA90312085DF2A90312085D4AAA7A
:101403000312085DD9AA0312085D48AB0312085DF5
:101413007FAB0312085DB7AB0312085DB3AD0312D4
:10142300085D92AE0312085DE0AF0312085D22B0BF
:101433000312085D05B10312085D91B10312085D43
:10144300CAB10312085DE9B10312085D34B2031295
:10145300085D54B20312085DEDB20312085D7CB35C
:101463000312085DD7B30312085D17B40312085DB6
:1014730094B60312085DAFB70312085DF5B7031204
:10148300085DEAB80312085D12B90312085D15B9C5
:101493000312085D1FB90312085D3BB90312085D0F
:1014A300C3B90312085DFCB90312085D28BA03121D
:1014B300085D4FBA0312085D73BA0312085D0EBBD1
:1014C3000312085D21BB0312085D50BB0312085DC4
:1014D30078F00412085D84F00412085DC2F004126F
:1014E300085DF27F0012085D10E50112085D33E527
:1014F3000112085D8DE60112085DD6E60112085D52
:1015030034E70112085D9AE70112085D9DE70112B5
:10151300085DEEE70112085D68E80112085DECE87A
:101523000112085DEFE80112085D77E90112085D19
:10153300BAE90112085D08EE0112085DB9EF011264
:10154300085DF8EF0112085D7CF30112085DAAF44F
:101553000112085D35F60112085DBBF60112085D44
:10156300B3F70112085D26FA0112085DA9CF031231
:10157300085D49D00312085DB5D00312085DD0D0D1
:101583000312085D5AD10312085DB3D10312085D3B
:10159300FED10312085D65D20312085DE6D3031280
:1015A300085DFED40312085D81D50312085D89D757
:1015B3000312085D2DD80312085DCCD80312085D11
:1015C300BAD90312085D98DB0312085D39DD0312F3
:1015D300085D757C0012085DD8DE0312085DB7DE76
:1015E3000212085D1ADF0212085D62DF0212085D53
:1015F300A0DF0212085DFBDF0212085D58E0021251
:10160300085D93E00212085D15E10212085D6FE1C7
:101613000212085DE3E20212085D6DE30212085D47
:10162300C0E30212085DDAE30212085D5E9D041254
:10163300085D4EE40212085DD4E60212085DF3E68B
:101643000212085DDEE70212085D18E90212085D66
:1016530097E90212085DCEE90212085D3DEA021223
:10166300085DFEEA0212085DD7EC0212085DD8EDB0
:101673000212085D49EF0212085D3FF10212085D94
:10168300BAF30212085D94F50212085D55F60212D0
:10169300085DCDF60212085DE4F60212085DDEF77E
:1016A3000212085DD6F80212085D45F90212085DC0
:1016B300ECD10412085D43D30412085D02D4041272
:1016C300085D6AD40412085D937C0012085DAE7C49
:1016D3000012085DF27C0012085D187D0012085D9F
:1016E3003F7D0012085D577D0012085DF97D0012F1
:1016F300085D0E7E0012085D307F0012085D397FA1
:101703000012085D427F0012085D4B7F0012085DE6
:101713006BC20412085D6DC60412085D72C6041222
:10172300085D74C60412085D3EDE0412085D27F3EB
:101733000412085DF7F00412085D07F10412085D56
:10174300A7FB0112085DE2EF0412085D0CF004121E
:10175300085DBFF20412085D7EF30412085DDFFF2B
:101763000112085D00800312085D33800312085DD7
:101773009A800312085D26810312085DCB81031250
:10178300085D13820312085D38820312085D5182DB
:101793000312085D77820312085D99820312085DC4
:1017A300D7820312085D26830312085D4F83031259
:1017B300085DAE830312085D87840312085D3D85CF
:1017C3000312085D9B850312085D62860312085DA0
:1017D300B9860312085D24870312085D628703122A
:1017E300085DB8870312085D30880312085D878897
:1017F3000312085D8A880312085D0B890312085DD2
:10180300AA890312085D268A0312085D488A031217
:10181300085DAB8B0312085DB88B0312085DBC8CAB
:101823000312085DC98C0312085DD28C0312085D94
:10183300CD8E0312085DE78F0312085D5B900312E0
:10184300085DC8900312085DF0900312085D829151
:101853000312085D65930312085D3C970312085D4C
:1018630050970312085D60970312085D6A9703128D
:10187300085D73970312085D7C970312085D8697D2
:101883000312085DB5970312085DE8970312085D1C
:10189300F3970312085D17980312085D3B98031230
:1018A300085D98980312085DDE980312085DFA98A4
:1018B3000312085D6D990312085DA4990312085D74
:1018C300E3990312085D309A0312085DB69A031276
:1018D300085D929C0312085D1C9D0312085D019E26
:1018E3000312085D76A00312085DC9A00312085D08
:1018F300F1A00312085D1BA20312085D48A20312A4
:10190300085D9AA20312085D4FA30312085DFFA3AB
:101913000312085D34A40312085DCAA40312085D10
:101923004EA50312085DEC890112085D1E8A01129F
:10193300085D4E8A0112085D228C0112085D038D39
:101943000112085D5B8D0112085D9E8E0112085D18
:10195300EA8E0112085D1E920112085D3495011290
:10196300085D7E960112085D14970112085D2097A9
:101973000112085D60970112085DEA980112085D83
:10198300DE990112085D089A0112085D6F9A01122F
:10199300085DC89A0112085D3F9B0112085D869D90
:1019A3000112085D1D9F0112085DF19F0112085D80
:1019B30030A10112085D75A30112085D46A601124C
:1019C300085D55A60112085DD9A60112085D80A71E
:1019D3000112085DC3A70112085D0CA80112085D7E
:1019E30060A80112085DC5A80112085D28A90112AB
:1019F300085D44A90112085D76A90112085DB5A925
:101A03000112085D9AAA0112085D49AB0112085D33
:101A1300CDAD0112085D0FAF0112085DEEAF0112EB
:101A2300085D6EB00112085D90B40112085DCEB47A
:101A33000112085D29B50112085D5CB50112085D4C
:101A4300D8B50112085DF4B50112085D8FB6011215
:101A5300085DDDB60112085DB0B70112085D75B807
:101A63000112085D13B90112085D1CBC0112085D67
:101A730030BD0112085DCDC00112085DD5C1011250
:101A8300085DD8C10112085D07C20112085D06C4D2
:101A93000112085DDFC40112085D26C50112085D4D
:101AA30073C60112085DADC60112085D5AC7011263
:101AB300085D8EC70112085D40C80112085D4FCA58
:101AC3000112085DBACA0112085D02CB0112085D5A
:101AD3009FCB0112085DCECC0112085D95CD01129A
:101AE300085D8BCF0112085D9FCF0112085DB3CF54
:101AF3000112085DE9CF0112085D19D00112085DDA
:101B0300A7D10112085D88D20112085DF8D2011233
:101B1300085DA8D30112085DD8D30112085DA2D4D1
:101B23000112085D5FD50112085D68D70112085DD7
:101B3300A7D70112085D14D80112085D59D9011203
:101B4300085D0CDA0112085D40DA0112085D58DA0B
:101B53000112085DFBDA0112085DE9DD0112085D7F
:101B6300B4DF0112085DD8DF0112085DF6DF011250
:101B7300085DCAE00112085DF2E40112085DB527B1
:101B83000012085DE7270012085DE62B0012085DCE
:101B9300322C0012085D782C0012085D202D0012F3
:101BA300085D8A2D0012085DD22D0012085D302FCA
:101BB3000012085D35300012085D27340012085DFD
:101BC300B8340012085DE0350012085D3D3600129E
:101BD300085D0C380012085D83380012085D8D38EB
:101BE3000012085D9A380012085DC5380012085DBE
:101BF300AC390012085D653A0012085DE83A00123C
:101C0300085D013B0012085D2A3B0012085D573B4B
:101C13000012085DB13D0012085D753E0012085DBB
:101C2300BA3E0012085D313F0012085DDF3F00122B
:101C3300085D11400012085D57400012085D934093
:101C43000012085DE4400012085D38410012085D8F
:101C5300C3410012085D0E420012085D7342001278
:101C6300085DEC420012085DAB440012085DBA4502
:101C73000012085DD9460012085D354A0012085D5E
:101C8300644D0012085D1D4E0012085D654E001282
:101C9300085D04500012085D18500012085D2250C0
:101CA3000012085D2C500012085D38500012085DC8
:101CB30057500012085D0D510012085D6651001265
:101CC300085D70510012085D7A510012085DEA51F7
:101CD3000012085D31520012085D36530012085D90
:101CE30085530012085D28540012085D0155001247
:101CF300085D21560012085D63570012085D5D58A8
:101D03000012085D75580012085DA9580012085D9D
:101D1300C7580012085D26590012085D4D5900127C
:101D2300085DE8590012085DA75A0012085D175BA9
:101D33000012085D8F5B0012085D995C0012085D5C
:101D4300665D0012085D605E0012085DA55E00120C
:101D5300085D005F0012085D675F0012085D955F14
:101D63000012085DB95F0012085DEE5F0012085DA6
:101D73001B600012085D61600012085D856000123F
:101D8300085DEE600012085DD6610012085D2162F5
:101D93000012085D4A620012085DE2620012085DEB
:101DA30065630012085D91630012085D866400128A
:101DB300085D00800412085D38800412085D5980B4
:101DC3000412085D9D800412085D01810412085D00
:101DD3000B810412085D1B810412085D52810412F9
:101DE300085D4A850412085D58870412085D458919
:101DF3000412085DDC890412085D7E8A0412085D02
:101E03009FB20212085D0FB30212085D6FB3021294
:101E1300085DBAB30212085DD5B30212085DFCB3C4
:101E23000212085D19B40212085D25B40212085D9E
:101E3300D0B50212085DE9B50212085D72B602124E
:101E4300085D85B60212085DA4B60212085D3FB7AD
:101E53000212085DAFB80212085D56BA0212085D9D
:101E6300E5BA0212085DE8BA0212085D58BB021215
:101E7300085D76BB0212085D1BBC0212085D57BCED
:101E83000212085D5ABC0212085D20BD0212085DF1
:101E930083BD0212085DBCBD0212085D31BE021291
:101EA300085D4FBE0212085D9DBE0212085D72BF3F
:101EB3000212085DC0BF0212085D08C00212085D6D
:101EC30095C00212085DCAC00212085DFFC002126B
:101ED300085D0DC10212085D6CC10212085DE4C108
:101EE3000212085D25C20212085D75C20212085D66
:101EF300A0C20212085DBAC20212085DD4C2021265
:101F0300085DAFC30212085DB9C30212085DF4C3D2
:101F13000212085D04C40212085D0DC40212085DBA
:101F230065C40212085D79C40212085DAFC50212CE
:101F3300085DC4C50212085D52C60212085DBAC626
:101F43000212085D6DC70212085D78C70212085DB0
:101F5300C5C80212085DE1C80212085D2DC902124C
:101F6300085D9CC90212085DD5C90212085DEFC95C
:101F73000212085D31CA0212085DF3CC0212085D39
:101F8300A9CD0212085D39CE0212085D81D002127A
:101F9300085D99D00212085D9CD00212085DA8D09A
:101FA3000212085DBCD00212085DC4D00212085DA3
:101FB300F7D00212085DEAD10212085D75D202124F
:101FC300085D08D30212085D81D30212085D45D46F
:101FD3000212085D67D40212085D00D50212085D83
:101FE3005DD50212085D60D50212085DDAD50212D2
:101FF300085D26D70212085D31D80212085DBCD8ED
:102003000212085DC1D90212085D81DA0212085D6D
:10201300B2DA0212085DD8DA0212085DE1DA0212BE
:10202300085D0FDB0212085DA7DB0212085D5CDCB2
:102033000212085DCDDC0212085D74DD0212085D38
:10204300FBDD0212085D3ADE0212085D7DDE02123C
:10205300085DFB9D0412085D087C0012085D397A57
:102063000012085DF7790012085D05790012085D1A
:10207300D9780012085D90780012085DCD770012C0
:10208300085D9F740012085D78720012085D487243
:102093000012085DEF710012085D82710012085D85
:1020A30041710012085D7A700012085D147000120D
:1020B300085DB36F0012085D536F0012085D2A6E4E
:1020C3000012085DBE6D0012085D3A6D0012085DD6
:1020D300356D0012085D296D0012085D6A690012F2
:1020E300085D44690012085DF99C0412085DE59CD3
:1020F3000412085D2E9C0412085D289B0412085DDF
:102103004C9A0412085DA7970412085DBC9604124A
:10211300085DE2680012085D9C680012085D836830
:102123000012085D6B960412085D78680012085D62
:1021330047680012085D63660012085DD6650012E9
:10214300085DF4E30212085D92650012085D7F7C6E
:102153000012085D6B650012085D20960412085D8D
:10216300CB950412085D9E950412085D6B950412CD
:10217300085D43950412085DE4940412085DC49459
:102183000412085D8F940412085D53910412085DD4
:10219300288F0412085D188D0412085D958C0412B3
:1021A300085D498C0412085D578B0412085DFD8B92
:1021B3000412085DCCDD0300000080FB0000228FC9
:1021C300000100741A87000100721A350004003CF4
:1021D3001A25000200401A26000200421A270002B4
:1021E30000441A280001004E1A290001004F1A84E6
:1021F300000400A61786000100C8192A0001005038
:102203001A2B000100511A2C000100551A2D000849
:1022130000B2172E000100561A2F000100571A3082
:10222300000100581A31000100591A32000100BAA6
:102233001733000100BB17340001005A1A3600019E
:1022430000BC17380001005B1A39000100541A83DF
:10225300000200701A63000100C8176400010052F5
:102263001A65000100531A6D000100C917710008B7
:1022730000AA17660001006F1A43000100601A44A8
:10228300000200611A45000100631A46000200645F
:102293001A47000800C01748000100661A4B0001E6
:1022A30000671A04000100731AA1000100771A37AE
:1022B300000100761A88000100751A3C000100BD78
:1022C300173D0001005C1A49000200681A6700010B
:1022D30000CA174D0002006A1A4E0001006C1A4F23
:1022E3000002006D1A3E0001005F1A51000100BE9A
:1022F30017520001005D1A530001005E1A540001D9
:1023030000BF170000000000000001363601010085
:102313000102010001030100010401060605020098
:1023230000070100340801000F090401010D010039
:10233300FF0E08000017020000190100FF1A010038
:10234300011B0100FE1C0100081D0200001F01000B
:102353000120010001210200002301000F240200DB
:10236300002601000127010008280200FF2A0100BE
:10237300072B0102402C0100002D0100012E01005A
:10238300012F0100FF30010B1D310800003A01004D
:10239300083B01000F3C0100013D0100FF3E04002A
:1023A3000042040000460400004A0400004E0400FA
:1023B3000052040000560400005A0400000000000C
:1023C300002001EA89000003002001E989000004DC
:1023D300004201EC87000005004201DB8700000694
:1023E300004201CA87000007003001EB890000109A
:1023F3000042038E160000110030039F16000012E6
:10240300001003191A0000FDFF2101E489030000F5
:10241300002103A0160300FDFF2141E4890700000A
:10242300003001E119070010003003F4150700FD27
:10243300FF2101E4890600FDFF2181E4890400FDF9
:10244300FF2181E4890103710301030103010301F6
:10245300030103220302030103100300030003002B
:1024630003000300030003000342030003240306E5
:10247300030003000304031203250323032503239B
:1024830003040304030003000300034403000300E5
:1024930003230300036503210035038103000305C0
:1024A3000300030003000300032503230303027156
:1024B3000230016002110270020102020202028074
:1024C30002100261023A0041006302730272026267
:1024D3000243020002130238000002000204021247
:1024E3000200020002000200020402040237003765
:1024F300003C0244020002390000020002650200AF
:1025030002350281020002050282028302000201F7
:1025130001710101010101110101013101010101F8
:10252300018001100161013B00140063017301721A
:1025330001620143010001130106013D013500045D
:102543000112010001000100010001040104013333
:102553000133013C014401320136000001000165F1
:1025630001000135008101000105018201830100A1
:10257300010300710030016000110070003102207E
:102583000350048000100061000000140063007316
:102593000072006200430000001300060000000008
:1025A300000400120000000000000000000400040A
:1025B30000370037003C0244000000000000000028
:1025C3000065000000350081000000050000008365
:1025D30000000036000100060000000F00000000AC
:1025E30000000000000000000003FFFF00000403E0
:1025F300FFFF0000FFFF0FF4010005C404032000E8
:102603000100000B000000000000000003010F00A8
:1026130000000000000000000000000000000000B7
:1026230000000000000000000000000000000000A7
:1026330000C6120213CC12F411D2120813D21214D0
:1026430013D812F411D21208130000000000000086
:1026530000000000000000000000000000DE12F493
:1026630011E4121A13EA12F4110000000000000032
:102673000000000000F0122C13F612F411F0122CDB
:1026830013F612F411E4121A13FC12F4110000965B
:10269300150100961502000C1502800615030012A1
:1026A300150400181504801E1505002415060030B6
:1026B30015310042153300481534004E15FFFF0055
:1026C3000007ECFDFDFDECDCDCCCBCACAC9C9C8CD5
:1026D3007C7C6C6C5C5C5C4C4C3C3C2C2C1C1C0370
:1026E300EAF5E5D5D5C5B5A5959585857575656572
:1026F30055554545353525251515050AF61B02C0E3
:102703001B05CC1B07C61B0CA81B0DB41BFF00002D
:1027130000160F00000B150B020002220F330000FE
:102723000E0F5A6967426565416C6C69616E63653A
:102733003039D0D1D2D3D4D5D6D7D8D9DADBDCDD72
:10274300DEDF303016181920231A1C1E3000034D0B
:102753004C4651181A2505020001191618161618A9
:10276300230300303017181921301B1D1F30003C84
:1027730040423A3F3F392F47300C0E020B040B0AFD
:102783000708000F020402010101010902E8030026
:102793000000BE040A01000E000300E803FF040961
:1027A3001103101E030A0C04040828020C05081563
:1027B3001E0474F71203D6E990189FF0901854E49E
:1027C300F0120FEA9018B7E4F0A3F09018A0F0A36A
:1027D300F0121D46120FF09017D8E4F0A3F0121672
:1027E300F802419374F01203D674D312094085188A
:1027F30082851983125DC75480606890189FE0F941
:102803001210688A088B09AE08AF09EE4F604C7C42
:102813000080010CEC75F003A4F8A9F074FE28F510
:1028230082742639F583E493F46029E493F88E8265
:102833008F83E06870DDEC75F003A4F874FF28F56E
:1028430082742639F583E493C0E0740193F583D051
:102853008212054EEEFAEFFB12105612635A648091
:10286300022BCC851882851983A3E05420602112A2
:102873001C5C8A088B09AE08AF09EE4F600A121B75
:10288300B4EEFAEFFB12105612635A6420022BCCFB
:10289300851882851983E0A2E05025901859E064D9
:1028A3000F70117900121B8AE96009901A3C120B10
:1028B30016121BA2851882851983E06401022BABD3
:1028C30054207003022BB07A207B0090189FE0F90C
:1028D3001211ACEA4B4C4D701A9018B3120B22E84C
:1028E300494A4B700E750801750900750A00750B8E
:1028F30000806A750C00750D00750E00750F0012CF
:1029030011B88A088B098C0A8D0B9018B3120B220D
:10291300E8494A4B60319018B378081207F7400E24
:10292300750CFF750DFF750EFF750F7F80198508F8
:102933000C85090D8C0E8D0F9018B3780C120910AD
:102943007401780C1208F7850C08850D09850E0AA9
:10295300850F0BE508122DCB7003022AEB7C00795F
:10296300047A007B00121C328A0C8B0DAE0CAF0D67
:10297300022A2C7402120B4574FFF07403120B45E8
:1029830074FFF07404120B4574FF1260E7740712AE
:10299300093812584412591C121C7AE96401706BED
:1029A3001249BD4480F8A3E0F97428120B45E8F0FE
:1029B300A3E9126016E0C0E0742A120B45D0E012BE
:1029C30042CF540860167428120B45A3E044011249
:1029D3002BDFC0E0742C120B45D0E0F0125C756065
:1029E30012124172125D2DE0F87416120B45E8F0D5
:1029F300A3E4F09089C41206B87406120938740B64
:102A030012093012185474041208728E828F83A331
:102A1300A3A3A3A3A3A3A3A37406122BDFF9121CDE
:102A2300147405120B45125D41EE4F7003022AEB3D
:102A33007C007904EEFAEFFB121C327405120B458D
:102A4300EAF0A3EB124FEBE0F50CA3E0F50DE4F590
:102A53000EF50F7808790C120AA04023EE2404F82F
:102A6300E43FF985080C85090D88828983C3E095C5
:102A73000CF0A3E0950D126463E84970A4800C8EFA
:102A8300828F83A3A3A3A3E4F0A3F08E828F83A3F7
:102A9300A3A3A3A3A3A3A3A3A3E064018E828F8311
:102AA300A3A3A3A3A3A37023E05404600302297682
:102AB3008E828F83A3A3A3A3A3A3A3A3A37406F0CC
:102AC3007AB7122D0E121B9C022A24A3A3A3A3E000
:102AD30060030229768E828F83A3A3A3A3A3A3A358
:102AE300A3A37401F0022A24121C027C0079017A48
:102AF300007B00121C328B0DEA450D600C7A207BA3
:102B03000090189FE0F91210927C0079047A007B00
:102B130000121C32EA4B7013804D8A828B83A3A36D
:102B2300A3A3125E15EE98EF99400B8A828B83A3C1
:102B3300A3A3A3125D417C007904121C328B0BA961
:102B43000BEA4970D5C3E5089EE5099F500DC3EE16
:102B53009508FEEF9509FFEE4F70167A207B0090E3
:102B6300189FE0F91210929018B3122BD8A3F0809B
:102B73002EEE2EFEEF33FF8E088F09E4F50AF50BD8
:102B830078081208A87A207B0090189FE0F91211A8
:102B93009A74041208721211B89018B3120B0A85B2
:102BA3001882851983E06420FAA3E0801CA3E05413
:102BB3000460191254E41221187901901852125921
:102BC3001C12186612635A6404FB80047A007B00AB
:102BD300742D025C4AE4F0A3F0A3F0221242D4A3C2
:102BE300A3E022C082C08374EA1209407C167D00F0
:102BF3007900AA18AB191210387408120B45740225
:102C0300F0901848125744122C267409120B4512DF
:102C1300575D7413120B45E41254221216EC74160A
:102C2300024598E8F0A3E9F0901852125C932274DD
:102C3300F71203D674DA120940EAFEEBFFEE4F6097
:102C43002DAC18AD19121C7A7406120B45E0601EE8
:102C53007417120B45E0FD7401120B45E0FCEEFA0C
:102C6300EFFB7900121B60E9600479A4800279000C
:102C7300742602419074F71203D6EAFEEBFF8E82AC
:102C83008F83A3A3A3A3A3A3E054406017125C57AD
:102C930012591C121D10E960067AFF7BFF80151282
:102CA3005C57800390184812591C74FE6A700374B1
:102CB300FF6B6047125C57125DC7121D10E98E82CD
:102CC3008F83600E1263F21245A538F583E4F0A3F7
:102CD3008003126417F07C907D1B8E828F831259C0
:102CE3001C1216F2E9F5087015EE4F60097901EE32
:102CF300FAEFFB121C0EA9080241937508CDAA082E
:102D0300122D0E121B9CE960E080EB8E828F8312E2
:102D130063F6240CF582E438F583E0F92274F612A5
:102D230003D6E9FEEAFF7A0F7B00121050EA4B60EC
:102D33001F8A828B83740CF0EEA3A3F0EF8A828B3D
:102D430083123F2890189FE0F912105C79008034B9
:102D5300EEF9121C388A088B09A808A909E849600A
:102D63002188828983A3A3A3A3A3A3A3A3A37406F4
:102D7300125E28A3A3A3A3A3E0F91218F6EEF91297
:102D83001C1479100251E574F41203D68A088B09D6
:102D93008C0A8D0B901859E0640F7028122DCA60AD
:102DA30023901854E064086005E064047016780802
:102DB3001208A87A017B0090189FE0F912119A7407
:102DC30004120872023030EA4509450A450B2274A1
:102DD300F41203D674FC120940EAFEEBFF8E828FD5
:102DE30083A3A3E0F9121C388A088B09EA4509700A
:102DF30003022F118E828F83A3A882A983E0C0E0F0
:102E0300EA1253D4D0E0123D9364F160288E828F8E
:102E130083A3E064CD601E8E828F83A3E0641A6077
:102E2300148E828F83A3E064E9600A8E828F83A36A
:102E3300E064E170307900121C0EE96028E5082493
:102E430004F50AE43509F50B850882850983122FF9
:102E530022123D7912591C120FFC850A82850B83BD
:102E6300125DC780788E828F83A3E0C0E074021264
:102E73000B45D0E01245AB126451EE240B1244977C
:102E8300C0E07403120B45D0E0F0E5081260D912DC
:102E9300349CE0AA18AB19700512184E8003121C5B
:102EA300F87402120B45E064E970328508828509E3
:102EB30083123635750A01780A1208B4750AE9785F
:102EC3000A1208B4123D5D1241A0A3A3A3A3A31247
:102ED300419812591C121CB07402120872850882A0
:102EE300850983A3A3A3A3A3A3A3A3A3E06402705D
:102EF30012850882850983A3A3A3A3A3A3A3A3A3E2
:102F03007406F08E828F83A3A3E0F9121C14121CA3
:102F130002901A42123400121BA2740402302DA331
:102F2300A3A3A3A3A31258318E828F832274F41216
:102F330003D6EAFEEBFF7508008E828F83A3A3A35B
:102F4300A3A3E0603B75080812590F79FF1219CE4D
:102F53008B0BEA450B601075082C8E828F83A3A31D
:102F6300A3A3A3E0D2E0F08E828F83A3A3A3A3A3A2
:102F7300E054036401600302302743081102302741
:102F8300EE24181244976036EE241A124497600315
:102F9300F47012125DCD7003A3E069600302302761
:102FA300750822807FEE241B125827EE241A124440
:102FB30097FAEE2419124497F91218E4806612590D
:102FC3000F121D10E964027003750801125DCD70C4
:102FD30003A3E0697006E508D2E1F508E50860158A
:102FE3008E828F83A3A3E07006E508D2E58004E513
:102FF30008D2E6F50812590F121D10E96401700694
:10300300E508D2E0F5088E828F83A3A3E06015EE76
:10301300241D124CD7F9121CFEE964016006E50871
:10302300C2E0F508A908800574091208727F04023A
:1030330005ED74F01203D674D7120940EAFEEBFFD4
:103043008E828F83A3A3A3A3E06011901A40125C26
:103053007E6009901A40123400121BA274031209F5
:10306300388E828F83A3A3A31255F612591A121C0A
:103073007AE970030231CB78017405120B45E0C382
:103083009402400278007407120B45E0C394024097
:10309300027800740C120B45E064F87003A3E0F4AB
:1030A30070030231CB740C120B45E064F97003A377
:1030B300E0F470030231CB740C120B45E064FA7038
:1030C30003A3E0F470030231CB740C120B45E064EC
:1030D300FB7003A3E0F470030231CB7406120B45BB
:1030E300E0F9901842E06960030231CBE8A2E040C6
:1030F300030231CB7427120B45E060030231CBEEA0
:103103002413125C897422120B45125600241C12DC
:103113005C897410120B4512575D7409120B45E05C
:10312300601D741A120B45E0FD7404120B45E0FC9C
:103133008E828F8312591A7901121B60E9703D74D4
:1031430003120930121BAEE9F50C7409120B45E0AA
:10315300702E90183CE060287422550C6422602085
:103163007442550C644270147420120B4512340CD3
:10317300600E7420120B451233F960047ACF804A33
:10318300E9A2E6504D7420120B45124CDD24FD607C
:103193000F14600C24FD600824FD600424FE7028D5
:1031A3007420120B451233F2700E7420120B451269
:1031B3005331A3E0640D601A7403120930121D2801
:1031C300E96401700D0233ED7AD37B001214E2023D
:1031D30033EDEE242DF582E43FF58312362C700394
:1031E300A3E069702275080078081208B478081201
:1031F30008B4EE242F124497F912341212591C12F8
:103203001CB074021208727409120B45E0700302B9
:1032130032AF12341212591C121D768A0E8B0FEA2A
:10322300450F70030233467404120B45E0F88E8297
:103233008F83A3A3E028F8A3E03400F9E81245A59F
:1032430039F583E0F88A828B83A3A3A3E068600E39
:10325300E88A828B83A3A3A3123F21122BD979047B
:10326300E9120B451249DEA3E02AF8A3E0340088F3
:1032730082F583A3AA82AB8312103E8A088B098C42
:103283000A8D0B850E82850F83A3A3A3A37808124F
:1032930007F740030233ED9089A47808120A2085CA
:1032A3000E82850F8312644DA31246D1901854E009
:1032B30064046008E0640960030233EDE50CA2E5F1
:1032C3004003023380EE242F1249AEF0EE24301275
:1032D3004497C0E07401120B45D0E0F0EE243112A4
:1032E3004497C0E07402120B45D0E0F07414120B43
:1032F30045E06401702C740E120B45123D8A2413B1
:10330300124497687003A3E0697017740C120B459D
:1033130012591C121D10E9640270077414120B4534
:10332300E4F0EE2425F582E43FF5831206B8740435
:1033330012093874071209301218547404120872EF
:103343000233ED901899E0640160030232AF7420F8
:10335300120B4512340C7009E50CA2E6500302323D
:10336300AF7410120B45E0F47003A3E0F4607BEE3E
:10337300FCEFFD7403120930121BBA806DA2E650F4
:10338300697420120B4512583E7016741A120B45BD
:10339300E06402705574031209307900121CF28044
:1033A300497420120B451233F97014741A120B4529
:1033B300E0640470357403120930121CE6802B7428
:1033C30020120B451233F2700C790074031209308A
:1033D300121D3480157420120B45125331E0640C16
:1033E30070087403120930121D407429025C4A12DA
:1033F3005C61E0640322125C61E0640722E0F5088B
:10340300A3E0AA08FBE4FCFD22124CE1640622EED1
:10341300242BF582E43F12342012449022F58312C8
:103423005831EE2274F41203D6EAFEEBFF8C088DBA
:10343300099017BAE0600F125DCD7003A3E06970C5
:10344300051218D28049790012590F1219028A8283
:103453008B83E5824583602FA3A3A3A3A3A3E05497
:10346300186024E508241C1234991206BC12349502
:103473001206BCEE2418124497F91234A11219143F
:103483007404120872800879001234A11218D80249
:103493003030E5082413F582E43509F583228E8262
:1034A3008F83A3A3A3A3A3A3A3A3A312342212577B
:1034B3003B1259202274F71203D674F7120940EA1B
:1034C300FEEBFF901854E06403600DE064016008B4
:1034D300E0640960030235D38E828F83A3E0600327
:1034E3000235967C007D007A027B00120FF61235BE
:1034F300D88A828B83125C8F90184512575D79535B
:103503001216DA901854E06409600990185212599F
:103513001C121D7085188285198374011254227937
:10352300421216DA9018547404F0740112093079B7
:103533004A1216D474011209387A4A7B181211D030
:103543009016CEE0640B70057406F0800B79009042
:10355300185212591C12186690184512582D7A03E6
:103563007B00120FF690184812582D7A047B001234
:103573000FF690183FE0A2E35004D2F08002C2F0AD
:1035830012541879521216DA901A3C120B16121BA7
:10359300A2803AFC7D007A037B10120FF69016CEC0
:1035A300E0640B7003740AF09017BEE4F0FA7B40FA
:1035B30090189FE0F91211A68E828F83A3E0F990F1
:1035C300185212591C121866901854E4F0121BE496
:1035D3007409024190EE2402FAE43FFB22C082C048
:1035E300839017D8125C7E7017901854E024FB6008
:1035F30005146007800A9017DE80209017E0801B77
:10360300E84960089017D9123804700C8A828B83BA
:10361300A3E0F912185A800E9018CE125C7E600651
:1036230012533212054E024E5E125C93901852E012
:103633006822125C93E8FAE9FB2274F51203D6744C
:10364300D81209408A088B098A828B83A3A3A3A378
:10365300A3A3A3A3E0C3940F50030237FF8A828B73
:1036630083A3A3A3125D4174151209388A828B8345
:10367300A3A3A3A3A3A3A3A3E0F98A828B831259D1
:1036830013121BF07415120B45E0702E850882850A
:103693000983A3A3A3A3A3A3A3A3E0C3940B401AE7
:1036A3008E828F83A3A3A3A3A3A3A3A3E064027027
:1036B30009EE240B124497F460030237FF741712C8
:1036C3000B45E06007640260030237FF901854E083
:1036D3006402601AE0640660159017D8125C7E706D
:1036E300030237FF12380460030237FF803290175A
:1036F300D8125C7E702A75080078081208B478081E
:103703001208B4EE2410F582E43FF5831255F7A3B3
:10371300A3A3122F2212591C121CB0740212087296
:103723008E828F83125744E8F0A3E9123D9C125C0A
:103733008F7402120B451256001249BEC0E0740486
:10374300120B45D0E0F0EE240B125E1A740F7808CA
:10375300120AD07405120B45E508F07419120B45D3
:10376300E0C0E07406120B45D0E0F0741B120B4569
:10377300E0C0E07407120B45D0E0F07416120B455D
:10378300E0C0E07409120B45D0E0F07417120B454A
:10379300E0C0E07408120B45D0E0F0EE24101244B0
:1037A30097C0E0740A120B45D0E0F0741A120B456F
:1037B300E0C0E0740B120B45D0E0F07427120B4508
:1037C300E0C0E0740C120B45D0E0F0741C120B4502
:1037D300A982AA8389088A09750A0078081208ACA5
:1037E3007C087D007410120B45AA82AB8312102C47
:1037F3007403120872AA18AB1912186074280242D3
:10380300E4E0C812581D64012274F21203D674F85E
:103813001209408A0A8B0B8C0C8D0D890890893A0A
:10382300AC18AD1974081207D6C200AC0AAD0BAAC6
:1038330018AB191211CAE97002D2009018A08014B3
:10384300AC0AAD0BEE240BFAE43FFB1211CAE9708C
:103853001B12447D1240DC601EA20040E38E828F67
:1038630083E0650C7004A3E0650D70E58E828F83A1
:10387300A3A3E0650870DAEEFAEFFB7408023DA932
:10388300C082C0839018A0024E5BC082C083901890
:10389300A0E4F0A3023AFD74F71203D69018A01225
:1038A3006360800FEA2414F582E4125D3E1210E691
:1038B300EEFAEFFBEA4B70EC9018A0E4F0A3F002F1
:1038C300419374F21203D68A0C8B0DECFEEDFF8943
:1038D3000B8A828B831253DFF0A3A882A9838A8287
:1038E3008B8312398E123F1CA3E0C454F0FA8882F2
:1038F3008983E04A124A02850C828B83A3A312397F
:103903008E1239A1E0333354FC123995E03333334B
:1039130054F8123995A3E0A2E0E4331313FA888232
:103923008983E04AF0EE2403FE50010FE50C2407DF
:10393300F508E4350DF509750A0078081208AC7C22
:10394300087D00EEFAEFFB12102C7403120872EEDE
:103953002408FE50010FE50C240FF508E4350DF59E
:103963000978081208AC7C037D00EEFAEFFB121015
:103973002C7403120872E50BC3940F400BE50C1271
:10398300459F350D124FAAF0023DACA3E088828912
:103993008322FA88828983E04A1239A1A322F0851F
:1039A3000C828B83A3A3A3A32274F21203D6EAFE91
:1039B300EBFF8C0C8D0D8E828F83E08C828D8312B6
:1039C3004FE0A882A983E0540F8C828D83123D922D
:1039D300C4124E011249F8124E09123D90A2E2E4BC
:1039E300338C828D83123D8F131313541F124E0198
:1039F300123D8FA2E7E4338C828D83A3A3A3A3A3F9
:103A0300A3F0EE2403FE50010F8E088F09750A0000
:103A130078081208AC7C087D00E50C2407FAE4352D
:103A23000DFB12102C7403120872EE2408FE5001D1
:103A33000F8E088F0978081208AC7C037D00E50C13
:103A4300240FFAE4350DFB12102C74031208728E46
:103A5300828F83A3A3A3E0C0E012646BD0E0F002E3
:103A63003DAC74F61203D6EAFEEBFF8E828F83A37E
:103A7300858208858309E0F912187E850882850905
:103A830083E064EB601E8E828F83A3E064E16014A5
:103A93008E828F83A3E064F1600A8E828F83A3E01A
:103AA300641A70078E828F83A3E4F0901A3C120B82
:103AB30016121BA275080178081208B48E828F8330
:103AC300A3E0F50878081208B47900901852125848
:103AD3002D90184812591C121CB07402120872124D
:103AE3001C020251E5C082C083E99018B27003E45E
:103AF300800274018004EAF0A3EBF0024E5E74F6D8
:103B03001203D69018B2E0701B7C0079017A007B17
:103B130000121C32EA4B600C8A828B83125C7E603B
:103B230003121B960251E5C082C0837904121C2C38
:103B3300E9F89027B0E493C398401079FF121C2C46
:103B4300E9F89027AFE493C3985004790180027990
:103B530000024E5E74F21203D68A0A8B0B8909C2E5
:103B6300008A828B83A3A3A3A3A3A3A3A3E0F91235
:103B73001C388A0C8B0DAE0CAF0D750801EE4F602F
:103B830003023C40850A82850B83A3A3A3A3A3A3BB
:103B930012582D850A82850B83A3A3A3A3A3A3A3F2
:103BA300123D7912591C121C208A0C8B0DAE0CAFDE
:103BB3000DEE4F7003023D568E828F83A3A3A3A302
:103BC300E4F0A3F0E50A240CFAE4350BFB8A828BBC
:103BD30083E0C0E0123D5DD0E0F0E50A240D123D24
:103BE30083240D125757121D16EE240F125DC1E5E3
:103BF3000A2411123D832411125757E50A24131284
:103C03005E0CC0E012448BD0E0F0D200EE2406122A
:103C130049A5123D70123D9354046003023CAE90DB
:103C23001A4EE0F50A750B007407780A1209FA8E2A
:103C3300828F83A3A3A3A3A3A3123D67F08E828FD6
:103C430083A3A3A3A3A3A3E0F50AA3E0F50B74073F
:103C5300780A120AD0E50A5407FCE509605C8E82F3
:103C63008F83A3A3A3A3A3A3A3A3A37402124FE5C8
:103C7300124050600B901840124A2BA3A312575DB9
:103C8300EC7003023D21EE24061263D4123D70F062
:103C9300EC24FFF50AE434FFF50B7407780A1209E4
:103CA300FA8A828B83123D67F080738E828F83A39F
:103CB300A3A3A3A3A3E044808082EC70057508004E
:103CC300805C8E828F83A3A3A3A3A3A3E05420606D
:103CD3000C12104AEA547F7900245F80198E828F78
:103CE30083A3A3A3A3A3A3E05410601A12104AEA68
:103CF300540F7900240A5001098E828F83A3A3A352
:103D0300A3F0A3E9800D8E828F83A3A3A3A37401E1
:103D1300F0A3E4123D9C7404123FD4121092A2004B
:103D230050348E828F83122F24A3A3A3A3A3A3A310
:103D3300A3A3E0F9EEFAEFFB121C26E96018125C6C
:103D430075600912417212591C1210E6EEFAEFFB6C
:103D53001210E6750800A908804FEE240CF582E4E2
:103D63003FF58322E0450AF0A3E0450B22E0547FB0
:103D7300F0A3E054FC22A3E0F9850A82850B832299
:103D8300F582E4350BF583125C93EE22A3A3A3A380
:103D9300123D9722125E33E022123DA0221242D836
:103DA300A3A3A32274031208727F060205ED74F421
:103DB3001203D674F71209407E00121C38EA4B70C6
:103DC30003023E708A828B83A3A3A3A3A3A3A3A30B
:103DD300A3E064066003023E708A828B83A3A3A3DD
:103DE300A3A3A3A3E0FF8A828B831263FCE0C0E05A
:103DF3007408120B45D0E01241B612574912575DB1
:103E0300121C4AEF5408606385188285198312587F
:103E13002D7A007B00121C1A8B0BEA450B704C1297
:103E230064771217047C007D007A007B0080288E63
:103E3300828F83124CDDF47003A3E0F4602D90189D
:103E430052122F2812591C1216FEE9641A601C7CA8
:103E5300007D00EEFAEFFB121C1A8A0A8B0BAE0AE6
:103E6300AF0BEE4F70C9790012170A7E01EEF9020B
:103E7300302BC082C0838A828B83E582458370099D
:103E83009018B780068A828B83A3A3124084602094
:103E93008A828B83A3A3A3A3A3A3A3E0540860E50F
:103EA300EC4D601012408A7003A3E06D70D780045C
:103EB3007A007B00024E5E74F21203D68A088B09E5
:103EC300890AECFEEDFF7A147B001210E0EA4B60E6
:103ED3003B8A828B83A3A3A3A3A3A3A3A3A3E412D9
:103EE30041ABA3E50A125DEEA3A3A3EEF0A3EF1289
:103EF3003F211241BD123F288A828B83126451EA0B
:103F0300240F123F12123F1BA3F0A3F0023DACF5A6
:103F130082E43BF583E4F022A3126434A322125D0E
:103F2300FEE4F0A322A3F0125D37123F152274F5CD
:103F33001203D6EAFEEBFF890A8C088D09EE4F7057
:103F430003023FCF7401650A70127901121C2CE938
:103F5300F89027B1E493C398502280167404650A3D
:103F630070147904121C2CE9F89027B0E493C398D9
:103F7300500A791180587402650A70508E828F83BB
:103F8300A3A3A3A3A3A3A3A3A3E50A124FE51264C8
:103F93004D8E828F83A3A3E4F0A3F09018B7125C35
:103FA3007E60188003125C8F88828983A3A31240EA
:103FB3008488828983A3A370EC80039018B7EEF002
:103FC300A3EF123FD41210927900800279C102420A
:103FD300E7F07A207B0090189FE0F922C082C0832B
:103FE300E9F879009018B7801D8A828B83A3A3A375
:103FF300A3A3A3A3A3A3E068600574FF68700109EA
:104003008A828B83A3A312408470DE024E5E74F710
:104013001203D6EA4B70059018B780068A828B8309
:10402300A3A3124084601F8A828B83A3A3A3A3A3A9
:10403300A3A3A3A3E06970E4EC600F8A828B8312CD
:10404300405070D880047A007B00024193126420B0
:10405300E0540422C082C0839018B780068A828B02
:1040630083A3A312408460128A828B83A3A3A3A396
:10407300A3A3A3A3E06970E580047A007B00024E4A
:104083005E125920EA4B228A828B83124CE16C2206
:1040930074F21203D68A0A8B0B8C0C8D0D750800F3
:1040A300750900EA450B602A9018B780068E828F47
:1040B30083A3A31240DC601AAC0CAD0DEEFAEFFB48
:1040C300850A82850B8312054EE9640170DF8E0831
:1040D3008F09AA08AB09023DACE0FEA3E0FFEE4F57
:1040E3002274F71203D69018B7125C8F7C007D0000
:1040F300800DE8FCE9FD88828983A3A3125C8FE825
:10410300496030EA687002EB6970E79018B712599A
:104113001CE86A7002E96B88828983A3A370081282
:104123005C8F9018B78009125C8F8C828D83A3A358
:1041330012575D805B74F71203D6EAFEEBFFEE4F76
:10414300602B121C4412418012591C1210E68E82FD
:104153008F8312591C1210E6125C756009124172AA
:1041630012591C1210E6EEFAEFFB1210E68021EE54
:1041730012417722240FF582E43FF583228E828F4A
:1041830083E0F8A3E0C812585738F5832212087267
:104193007F010205ED1258318A828B8322E0F98A6E
:1041A300828B83A3A3A3A3221241AF22125E02A395
:1041B300A3A322126434124CE1221241AFA3A3221F
:1041C30074F61203D69018B7125D4180308E828F39
:1041D30083A3A3125E2012418012591C1210E68E93
:1041E300828F8312591C1210E612417212591C124B
:1041F30010E6EEFAEFFB1210E6AE08AF09EE4F70D1
:10420300CC9018B7E4F0A3F00251E5C082C083EA72
:10421300FCEBFDEC4D6017EC24FBF582ED34FF1253
:104223005C7C7007124268E0F4600712105679054F
:10423300803090189FE0C0E0124268D0E0F09027F1
:10424300A8E493F97AB97B1812108CE96401701011
:104253007A007B2090189FE0F91210927900800277
:104263007904024E5EEC24FFF582ED34FFF58322E0
:1042730074F41203D6A2AFE433F508C2AF9018B9B1
:104283001240DC603AEE24FBF582EF34FF125C7CD3
:104293007A007B2090189F6007E0F9121092800546
:1042A300E0F9121098E4F50AF50B780A1208B0EE5B
:1042B300FCEFFD7AB97B181210867402120872E5BE
:1042C30008A2E092AFEEFAEFFB0230301242D4E0E4
:1042D300221242D822F08E828F83A3A3A3A3A3A387
:1042E300221208727F030205ED74F21203D674FAE8
:1042F300120940EAFEEBFF7508FE7509FF121C0860
:10430300E960057911024478124494603B901A677E
:10431300E0C43354E0F8E0333354FC48C0E0125BAC
:104323000DD0E0125E39FAA3E0FB79FF1219CE8BB0
:104333000BEA450B60127508FFEE240F12449744F5
:1043430004F0124494D2E0F08E828F8312591A1231
:104353001D10E96006EE2412125E50EE241312447F
:1043630097700D9027B3E493C0E012448BD0E0F034
:104373008E828F83E0A2E7500454038019EE241445
:104383001244977012901831E0C0E012447DD0E0DF
:10439300F0901831E004F0EE241112449764017098
:1043A30016901A52E0600D90183CE0700A8E828FCE
:1043B30083E07003125E4D8E828F83E0640170137D
:1043C300EE240B124CD764027009EE240F124497AB
:1043D3004440F0AC18AD19EEFAEFFB121C748A0AD4
:1043E3008B0B74FE6508700374FFF470098E828F63
:1043F30083A3A3125E20EA450B60768E828F83E04F
:10440300C0E07401120B45D0E0F07404120B45EECA
:10441300F0A3EFF0EE241E125C897402120B451216
:10442300575D7401120928880C890D780C1208B0A5
:10443300EE242012449F1208B41241721206BCEEFD
:10444300240E12449F1208B49018451206BC740837
:10445300120B45E0F9AC08AD09121C6E7408120882
:1044630072E9FE74106E700BAA0AAB0B1210E68091
:10447300027E10EEF97406023DA912448122EE2455
:1044830014F582E43FF58322EE1244902212540F76
:1044930022EE2415F582E43FF583E022F582E43F22
:1044A300F583E0F50C780C22C082C08374D712091F
:1044B30040908792740312093874261207D68A82B1
:1044C3008B83A3A3A3A3125C8F740E120B451264F8
:1044D3002CA3A3125C8F740C120B451245B3124527
:1044E300A5125108C0E0741A120B45D0E0F0125B1C
:1044F3008A125C8D7420120B451245B31253CE12EF
:104503005108C0E07408120B45D0E0F0EA241CF512
:1045130082E43B125C8D7412120B451245B32411D5
:10452300F582E4125108C0E07409120B45D0E0F0A3
:1045330012459E125108C0E07407120B45D0E0F0FB
:10454300EA241EF582E43B125C8D7424120B45129F
:1045530045B32420F582E4125108C0E07426120BFF
:1045630045D0E01245AB74FFF07401120B4574FFA4
:10457300F07402120B4574FFF09089C41206B874EC
:1045830004120938740712093012185474041208FB
:104593007279007429120872024E5EEA2412F582BF
:1045A300E422240DF582E422F08518828519832202
:1045B300E8F0A3E9F0EA2274F41203D674EC1209CA
:1045C300408A0A8B0B8C088D09E9FF7E107A217BC8
:1045D300001210E0851882851983EAF0A3EB125CC0
:1045E30084E84970030246C87C217D007900851860
:1045F30082851983E0FA12103890185212591C85DB
:1046030018828519831263F22409F582E438125D56
:10461300C57420120B45125C8F7411120B45124D99
:1046230054125C3738F5837402124D5812640374C4
:1046330002124D41E508F0A3E509124D581263E15A
:10464300EFF07422120B45124CF5F9A3E0C9126086
:10465300D939F583E81249F3A3E0C912585739123F
:1046630046CF7423120B4512591C7406120B4512C4
:104673005DC77408120B45E8F07426120B45125CF3
:104683005BC082C083740C120B45AC82AD83D083B4
:10469300D08274051207D67425120B45E0C0E0746E
:1046A30013120B45D0E0F07900AA18AB19121C0EB7
:1046B300E9640170047E00800C85188285198312D9
:1046C300591C1210E6EEF9741402302DF583E50A35
:1046D300F0A3E50BF02274F01203D674FF12094025
:1046E300EAFEEBFF8C088D098E828F83A37408F09A
:1046F300EE241612449760088E828F83A37410F001
:10470300EE241712449760098E828F83A3E0240856
:10471300F012449460088E828F83A3E004F08E82AB
:104723008F83A3A3A3A3A3A3E060198E828F83A384
:10473300A3A3A3A3A3A3E0C3332402F88E828F838E
:10474300A3E028F0EE24111249AE6004740E800138
:10475300E4F0901A5FE0640170168E828F83E06448
:1047630001600D9017BEE0600712499B740180043D
:1047730012499BE41249F38E828F83A3E01249BC52
:1047830028298C828D83F0EE2411124497601390B4
:10479300183DE0F9121B66E9F8850882850983E074
:1047A30029F0850882850983E0C394754009750C57
:1047B30000750D00024992E0FA7B001210E08A0CAA
:1047C3008B0DEA450D70030249928E828F83E0FAC6
:1047D3009018421249EC740278081209FAEA450863
:1047E300FAAB09EE24121249E6740678081209FAA4
:1047F300A808EA48FCEBFD124494600478018002A7
:104803007800EE2416FAE43FFBE4C8F9ED49FDEE27
:104813002411124497F5088809740978081209FAD3
:10482300ED4509FD8A828B831249EC740B780812DB
:1048330009FAED4509FDEE24171249E6740C7808D0
:104843001209FAED4509FD8E828F83A3A3A3A3A3C7
:10485300A31249EC740A78081209FAED4509FDEE32
:1048630024231249E6740D78081209FAECF8ED4591
:1048730009F9E8850C82850D83F0E91249F8850C66
:1048830082850D83124A1BF0EE24041249A51249B6
:10489300D0124A1BA3A31254051249D0A3A3A3A366
:1048A300126447850C82850D83A3A3A3A3A3A3A3AB
:1048B300F0750B088A828B83E06015EE241812587A
:1048C30027E50C2408FAE4350DFB1211D0750B1003
:1048D300EE24171244976019EE241A125827A80BD6
:1048E300E50C28FAE4350DFB1211D07408250BF5FD
:1048F3000B8E828F83A3A3A3A3A3A3E06055EE240F
:1049030007F50EE43FF50F850E82F583E0C0E01254
:1049130049C3D0E0124A0BE0C0E0081249C5D0E019
:10492300124A0BA3125C681208AC850E82850F83B2
:10493300E0124CA7A80BE50C28FAE4350DFB121086
:104943002C7403120872850E82850F83E0C333250E
:104953000BF50B1244946008C0E01249C3D0E0F099
:10496300125736125C681208AC1249BDFC7D007404
:1049730003120B451249DEE0F8E50C28F8E4350D87
:10498300F9E82AFAE439FB12102C7403120872AA0C
:104993000CAB0D7401025C4AEE2423F582E43FF56F
:1049A3008322F8E43FF98882898322F582E43FF584
:1049B30083E085188285198322F8EE1262C9E0220A
:1049C300A80BE50C28F582E4350DF583221249D4B2
:1049D30022E0850C82850D83A3A322E0FA8E828FC9
:1049E30083A322F582E43FF583E0F50875090022ED
:1049F30012643AF922A3124A0288828983E022F0E0
:104A0300EE2402F8E43FF922F0050B8E828F83A394
:104A1300A3A3A3A3A3A3A322A3A3125E33A3124915
:104A2300D4A322740302302D125C938E828F83A34E
:104A3300A32274F01203D674FD12094085188285EF
:104A43001983125DC77402120B45E9F08C0C8D0DAE
:104A5300750B017C267D007900AA0CAB0D12103872
:104A63007402120B45E0C394085003024C31E085F5
:104A73000C82850D83F0AC0CAD0D851882851983EE
:104A8300124CDDFA851882851983125331124FD4E3
:104A9300121C80E96003750B008518828519831247
:104AA3005C5B124CFFE0F9EA850C82850D83A3A3BE
:104AB300A3A3A3A3A3A3A3F0A3E9124D41A3A3120A
:104AC3004CFFA3A3E0F9EAF8E50C125C3712647219
:104AD300124D54125819C0E0E50C241112646FD022
:104AE300E0124D582407F582E438F583E0C0E01264
:104AF300646BD0E0124D2B7408124D38A3E0602094
:104B0300851882851983E02408F8A3E03400F9E5C9
:104B13000C241312646FE8F0A3E9125C322408F04A
:104B2300850C82850D83A3A3A3A3A3A3A3A3E06002
:104B33002A850C82850D83A385820E85830F124CF3
:104B4300ECF8A3E03400F9E50C1253CE350D1257FF
:104B53005B850E82850F83E02408F0124CAEE4F0EF
:104B6300124CBEE4F0A3124D2BA3A3A3A3E0601148
:104B7300124D10850C82850D83A3A3A3A3A3124D0D
:104B830049E50C124CCFE07003024C1D124D10FA94
:104B9300124CAEEA124D49F8851882851983E02834
:104BA300FBA3E034008B82F583E0F8E50C241A12B2
:104BB300646FE8124D49E8C39AE50C5058124CCA89
:104BC300F89027A9E493C39850047E0C8006E50C63
:104BD300124CCAFE850C82850D83124CEBF508A39B
:104BE300E03400F509750A0078081208ACEE124C9F
:104BF300A77AFD7B0B12102C7403120872124CBEA1
:104C030074FDF0A3740BF0EEC333F8850E82850FA9
:104C130083E0288004124CCFE4F0850C82850D8359
:104C2300A3E0F8850C82850D83E0C39850047900D6
:104C3300806F124CEBFAA3E03400FBE50C125E47E5
:104C4300350D125DC5850C82850D83E0C398C0E0E8
:104C5300E50C241712646FD0E0124D38E06040E594
:104C63000C2417FEE4350DFF8E828F83E024F2F0CF
:104C7300E50C241DF8E4350DF988828983E0240EC0
:104C8300FAA3E03400FB88828983125DC790183D44
:104C9300E0F9121B66E9F88E828F83E0C398F0A9CE
:104CA3000B025C4825E0FCE433FD22E50C124CB416
:104CB300222419F582E4350DF58322E50C241BF536
:104CC30082E4350DF58322124CB4E022125C2C35BC
:104CD3000DF58322F582E43FF583124CE122E0F8DF
:104CE300A3E0F5838882E022A3124CF022124CF554
:104CF3002822E0F8851882851983E022A3A3E0FA2D
:104D0300851882851983125C61A3A3A322850C8273
:104D1300850D83A385820E85830F124CF0FAA3E0E1
:104D230034008A82F583E022124D2F22F0850C8213
:104D3300850D83A322124D2FA3A3A3A3A322124D58
:104D43005DF583888222F0850E82850F83E004F06F
:104D530022E8F0A3E9124D5DC82212643EF8A3E0F5
:104D63002274F41203D68A088B09EA124E09A3A30C
:104D7300F0EA1313543F124E01A3A3F0EAC4131332
:104D8300124E09124E137409780A120AD0124DF802
:104D9300A3A3A3A3A3A3F0EB124DFA124E12740A1A
:104DA300780A120AD0E50A5401C0E0EC125C2C3DEB
:104DB300F583D0E0124E17740B780A120AD0124D05
:104DC300F8124E10740C780A120AD0124DF8A3127E
:104DD3004E10740D780A120AD0E50A5401C0E0ECB3
:104DE3002424F582E43DF583D0E0F0740E780812B4
:104DF3000AD0023027E50A54018C828D8322540F96
:104E03008C828D83A32254038C828D8322A3A3A33C
:104E1300A3A3A3A3F08A0A8B0B22C082C0837900C9
:104E23008A828B83A3A3A3A3A3A3E090183C600E61
:104E3300E070238A828B83A3A3E0701A8016E0605C
:104E4300158A828B83125913901845E06A7003A365
:104E5300E06B60027901800312591CD083D0820277
:104E6300085A74F21203D68A0A8B0B890CECFEEDF6
:104E7300FF8A828B83124FD2121C80850A82850B94
:104E830083A3A3124FC6E0F9EA8E828F83A3A3A361
:104E9300A3A3A3A3A3A3124FF1124FC6A3A3E0F9A5
:104EA300EAF8125736E8124FF1A3A3E0C0E0EE246C
:104EB30011F582E43FF583D0E0124FF8A3A3A3E0FA
:104EC300C0E0EE12459F3FF583D0E0124FE0740837
:104ED300124FEBA3A3A3E06016E50A2408F8E43518
:104EE3000BF9EE24131253E5124FE0E02408F08E81
:104EF300828F83A3A3A3A3A3A3A3A3E060148E829F
:104F03008F83A3124FB5EE24151253E512561824BE
:104F130008F08E828F83A3A3A3A3A3E0601F8E82D6
:104F23008F83A3858208858309E0F8E50A28F58243
:104F3300E4350B124FAAA3A312561804F0EEFAEFAE
:104F4300FB121C86E9F50D70598E828F83A3A3A3F0
:104F53001253DCA37014E0F8E50A28FAE4350BFBDE
:104F6300EE241D125DC1E50C8028124FB5E8240E16
:104F7300F8500109EE241D12575790183DE0F9121D
:104F83001B66E9F8850882850983E0F9E50CC39976
:104F930024F2C398C0E0EE2417F582E43FF583D0F2
:104FA300E0F0A90D023DACF583E08E828F83A3A3CD
:104FB300A322858208858309E0F8E50A28F8E43509
:104FC3000BF922E0FA850A82850B83A3A3A322E0CF
:104FD300FAA3E0F8E4C8F9EA28E439FB22124FE522
:104FE300A322F08E828F8322125E3EA3A322F0A31C
:104FF300E9124FF822F0850A82850B83A3A3A3A3AA
:1050030022C082C0837AC57B1879E21216D47AC58E
:105013007B18024E5EC082C083901845024E5BC06F
:1050230082C083901848024E5BC082C083794A12C3
:1050330016D4024E5E74F61203D69018CDE0FE0429
:10504300F0EEF9121C388B09EA450970EDEE60EABF
:10505300F90251E574F21203D6EAFEEBFF8C088DD8
:1050630009890A121D76740E120B45E0F9740F12AA
:105073000B45E0F8EA4B7012E8701BA90AAC08ADC7
:1050830009EEFAEFFB121D948071E86017E97006D0
:105093008A828B83E4F07401687060E99018D070A1
:1050A30027E48021E97054EA2402F582E4125108CE
:1050B300A80A28F8E4340013E813F0703E8A828BC0
:1050C30083A3A37401F08033E004F0901A4FE0F857
:1050D3009018D0E0C3984023E4F0901848E06E7035
:1050E30003A3E06F7015EEFAEFFB79011218787ADB
:1050F300017B0090189FE0F91211A6023DAC748960
:105103002AF582740A3BF583E02274F41203D68AEB
:10511300088B098C0A8D0B9089A4780812096C708E
:105123000E7A017B0090189FE0F912109280319063
:105133001A3C7808120ADF122DCA60187808120880
:10514300A87A017B0090189FE0F912119A74041257
:105153000872800C7A017B0090189FE0F91211A667
:10516300023030C082C083901A40023AF9C082C034
:1051730083901A42023AF974F61203D67E00750838
:105183003175091878081208B07C6E7D007A217B8E
:10519300001211587402120872E9640A70027E0147
:1051A3001217D6E9640A7004EED2E1FE90033612B8
:1051B3005C7E600F12533212054EE9640A7004EEEE
:1051C300D2E3FE1219F2E9640A7004EED2E4FE128D
:1051D3001656E9640A7004EED2E5FEEEF980031276
:1051E30008727F020205ED74F61203D6120FF075F2
:1051F300083175091878081208B075086E7509002A
:1052030078081208B07C007D007A217B00121164BB
:1052130074041208721217DC900338125C7E600665
:1052230012533212054E1219F812166880B474F62E
:105233001203D674FF1209407E00750831750918F0
:1052430078081208B07C6E7D007A217B0012115819
:105253007402120872E9600302531678081208B048
:1052630075086E8E0978081208B07C007D007A21DB
:105273007B0012116A7404120872E9600302531668
:10528300901845E064FE7003A3E0F4700302531624
:105293007E01901854E064086005E06404706F8533
:1052A3001882851983EE12542279421216DA7A5C37
:1052B3007B1879431216DA7A597B1879471216DA72
:1052C3007A4A7B18794A1216DA7A487B18794B1294
:1052D30016DA7A527B1879501216DA7A457B1879E6
:1052E300531216DA7A5A7B1879541216DA7A477BF4
:1052F3001879E11216DA90183FE0A2E35004D2F0D5
:105303008002C2F012541879521216DA8005120F75
:10531300F07E001217CA90033A125C7E60061253A5
:105323003212054E121A04EEF974010251E2A3126D
:105333005C622274F61203D6E9FEA2E050267508D9
:105343003175091878081208B075086E7509007868
:10535300081208B07C007D007A217B00121164746E
:1053630004120872EEA2E350031217D0EEA2E25029
:105373000E90033C125C7E600612533212054E02FD
:1053830051E574F71203D674ED120940E9FE901843
:105393009EF0AC18AD19901A81E0F97AA27B18122D
:1053A3001BF07412120B45EE1253C3AA18AB191259
:1053B3001BEA7AA27B1879451216DA74130241901C
:1053C300F0901A81E0F97CA27D18222415F582E47D
:1053D30022125D383509F58322A3A3A3E08E828FC1
:1053E3008322F582E43FF583E8F0A3E922EE125D20
:1053F300383FF5831253FB22E0F8A3E0F988828952
:10540300832212540922F0EE12540F222413F58240
:10541300E43FF58322A2F0E433851882851983F0F3
:10542300AA18AB192274F41203D68A088B097A00DE
:105433007B0490189FE0F91211A61254E4901854BB
:105443007409F0121C928A0A8B0BAC0AAD0B12344E
:105453009512591C1211CAE96401706B7A0F7B0013
:105463001210508A0A8B0BAE0AAF0BEE4F60588EA8
:10547300828F837402F0E508125E4735091254CD1A
:10548300FC88828983A3A3E0FBEC8E828F83A3A392
:10549300125DC8888289831253DC1254D5FAA3E0C3
:1054A300FB794A1216DA850882850983A3A3A3A38D
:1054B300A3A3E070069016CE7405F0EEFAEFFB900E
:1054C300189FE0F912105C023030F5831253FBA3EE
:1054D300E022A3F0E5082415F582E43509F583E01D
:1054E300229017DA125C93901A42E8F0A3E9F09045
:1054F30017DC125C93901A40E8F0A3E9F02274F4ED
:105503001203D674FD1209408A088B097401120B29
:10551300457402125422121D048A0A8B0BAE0AAF81
:105523000BEE4F70030255F012640CE412560CE0BC
:105533006401700888828983A37420F085088285BA
:105543000983A3A3A3A3A3E06401700988828983C9
:10555300A3E0D2E6F0850882850983A3A3A3A3A3CE
:10556300A3E06401700A88828983A3E0D2E78005FF
:1055730012448B7401125607E06401701E85088281
:10558300850983A3A3125C7E6003125E598508829A
:10559300850983A3A3125C8F12575485088285095A
:1055A30083A3A3A3A3A3A3A3E064017009EE240F21
:1055B300125E5CA3E4F085088285098312591C12EC
:1055C3001D10E96009EE240F1244974404F0EE2401
:1055D30017125E5C121C92125D061256181255F5D4
:1055E3001255FEFAEFFB1217F4E9F9800279100263
:1055F3004A26F8A3E0F98E828F8322A3A3E8F0A3BF
:10560300E9F0EE2212560CA322F085088285098365
:10561300A3A3A3A322F0850882850983E02274F55E
:105623001203D674F3120940890AEAFEEBFF7508E8
:10563300007509007C0D7D007900AA18AB191210C2
:1056430038125C22125837741F58600C7AD37B00CF
:105653001214E27900025731E8A2E55008740C12E3
:105663000B457401F0E8A2E75008740B120B457464
:1056730001F0E8A2E6740A5008120B457401F080A9
:1056830008120B45E0640170138E828F83A3A3A3DA
:10569300A3A3A3A3E06030EE241380128E828F8332
:1056A300A3A3A3A3A3A3A3A3E0601CEE2415125EEC
:1056B3001AE50845096010AC08AD097402120B45E0
:1056C300AA82AB831211D012573612574412575D78
:1056D300740A120B45E06401704B901A72E0604C3F
:1056E30064017006901A5CE06042EE240B125C8940
:1056F300901848E0687003A3E069703012590F12E4
:105703001D10E97027E5084509601A121C928A08E2
:105713008B09AC08AD097402120B45AA82AB831244
:1057230011CAE96007AA18AB19121872A90A740DF5
:105733000242E412573A22EE240BF582E43FF5834A
:105743002212574822E0F8A3E0F9851882851983CD
:1057530022EE2418F582E43FF583E8F0A3E9F02272
:1057630074F71203D674CD1209401263EA12581962
:10577300A2E040030258148E828F831253F7A3A32F
:10578300A3A3A3A3E054FE1260DF740D1209381221
:10579300584412591C121C8CE97076742A120B455A
:1057A30012583E706C7C0D7D007900AA18AB19125B
:1057B30010387416120B4512574412575D742A128F
:1057C3000B45125837A2E55008740B120B457401B0
:1057D300F0E8A2E75008740A120B457401F0E8A23E
:1057E300E65004742080027422120B4512582D7463
:1057F30002120B45AA82AB831211D08E828F83A330
:10580300A3E0C0E0740C120B45D0E012542212182E
:105813006C743302419012581D222406F582E43839
:10582300F583E022F582E43FF58312583122E0FC50
:10583300A3E0FD22125C5FA3E0F822124CE16404B2
:1058430022EA241EF582E43BF583E0F9EA12585775
:105853003BF58322241FF582E422E9F879007404DE
:1058630068600A740A68600574036870027901024B
:10587300085A74F61203D68A828B837424F0A3A386
:105883007401F01217FA8A088B09AE08AF09EE4FBC
:10589300600D8E828F83125D52121C92125DBEEEDA
:1058A300FAEFFB0251E5C082C0839018BB7401F08C
:1058B300E9A2E350037403F0E9A2E15004E0D2E269
:1058C300F0024E5E74F61203D679007C008A088BD0
:1058D300097808120633F8FF07FC58FA58FA58FA01
:1058E30058FA58F258F658FC58EE587C01800A7C56
:1058F3000480067C0280027C089018BBE05C600494
:1059030079028005EC600279010251E58E828F8372
:10591300A3A3A3A3A3A3A3A3A312592022E0FAA39F
:10592300E0FB2274F61203D68A828B83E07014A301
:10593300A3A3125C7E600C8A828B83125919121AFC
:105943005280047A007B000251E5C082C083780054
:10595300E875F003A4FCA9F0E9FD1259DC6A7003B1
:10596300A3E06B70189027A1E493C0E074BC2CF5FE
:1059730082741839F583D0E0F079C5805908E8C3FB
:10598300940340CC7800E875F003A4FCADF0125901
:10599300DC64FE7003A3E0F4601E08E8C3940340D4
:1059A300E57800E875F003A4FCADF074BC2CF58237
:1059B30074183DF583E07015E8125E90125DC79090
:1059C30027A1E49388828983F07900800908E8C3DA
:1059D300940340CF79C7024E5E74BD2CF5827418D0
:1059E3003DF583E02274F41203D674F3120940EAFE
:1059F300FEEBFF8C088D09750A12EE4F70057900D6
:105A0300025AA2901845E06E7003A3E06F701D1256
:105A13001C928A0A8B0BAC0AAD0BAA08AB091211B4
:105A2300CAE97005750A018003750A008518828525
:105A33001983E4F004120B45EEF0A3EF1254221283
:105A430017B2E9602A7403120B45AA82AB831217BB
:105A53008EE964017019750A017403120B45AC8257
:105A6300AD83AA08AB091211CAE96003750A00AC39
:105A730008AD09EEFAEFFB121D7CE9F8740A6870B1
:105A830005750A01801774A0687012AC08AD09EEA1
:105A9300FAEFFB121D88EEFAEFFB121D9AA90A74A6
:105AA3000D02302D74F71203D6EAFEEBFF8E828FC0
:105AB30083A3A3A3A3A3A3A3A3E06013125B0D1269
:105AC30034AE121D22E964017005125736802C8E04
:105AD300828F83A3A3A3A3A3A3A3E06028EE24132D
:105AE30012582712590F121D22E9640170178E8272
:105AF3008F83A3A3A3A3A3A3A3A3A312591C121D20
:105B03001C790180027900024193EE2415F582E4A9
:105B13003FF5832274F21203D674FD1209408A08FA
:105B23008B09ECFEEDFF890A750B017401120B451D
:105B33007404125422121D04EA4B60467411120BB2
